{
  "_format": "hh-sol-artifact-1",
  "contractName": "Donation",
  "sourceName": "contracts/Donation.sol",
  "abi": [
    {
      "inputs": [
        {
          "internalType": "address",
          "name": "_charityWallet",
          "type": "address"
        },
        {
          "internalType": "address",
          "name": "_usdcTokenAddress",
          "type": "address"
        }
      ],
      "stateMutability": "nonpayable",
      "type": "constructor"
    },
    {
      "anonymous": false,
      "inputs": [
        {
          "indexed": true,
          "internalType": "address",
          "name": "donor",
          "type": "address"
        },
        {
          "indexed": false,
          "internalType": "uint256",
          "name": "amount",
          "type": "uint256"
        },
        {
          "indexed": true,
          "internalType": "address",
          "name": "tokenAddress",
          "type": "address"
        },
        {
          "indexed": false,
          "internalType": "uint256",
          "name": "timestamp",
          "type": "uint256"
        }
      ],
      "name": "DonationReceived",
      "type": "event"
    },
    {
      "inputs": [],
      "name": "charityWallet",
      "outputs": [
        {
          "internalType": "address",
          "name": "",
          "type": "address"
        }
      ],
      "stateMutability": "view",
      "type": "function"
    },
    {
      "inputs": [
        {
          "internalType": "uint256",
          "name": "_amount",
          "type": "uint256"
        }
      ],
      "name": "donate",
      "outputs": [],
      "stateMutability": "nonpayable",
      "type": "function"
    },
    {
      "inputs": [],
      "name": "usdcTokenAddress",
      "outputs": [
        {
          "internalType": "address",
          "name": "",
          "type": "address"
        }
      ],
      "stateMutability": "view",
      "type": "function"
    }
  ],
  "bytecode": "0x60c060405234801561001057600080fd5b5060405161058038038061058083398101604081905261002f91610113565b6001600160a01b03821661008a5760405162461bcd60e51b815260206004820152601e60248201527f496e76616c696420636861726974792077616c6c65742061646472657373000060448201526064015b60405180910390fd5b6001600160a01b0381166100e05760405162461bcd60e51b815260206004820152601a60248201527f496e76616c6964205553444320746f6b656e20616464726573730000000000006044820152606401610081565b6001600160a01b039182166080521660a052610146565b80516001600160a01b038116811461010e57600080fd5b919050565b6000806040838503121561012657600080fd5b61012f836100f7565b915061013d602084016100f7565b90509250929050565b60805160a0516103fb61018560003960008181604b0152818161013f015281816102540152610331015260008181608e015261022501526103fb6000f3fe608060405234801561001057600080fd5b50600436106100415760003560e01c806377b53ece146100465780637b20876914610089578063f14faf6f146100b0575b600080fd5b61006d7f000000000000000000000000000000000000000000000000000000000000000081565b6040516001600160a01b03909116815260200160405180910390f35b61006d7f000000000000000000000000000000000000000000000000000000000000000081565b6100c36100be366004610383565b6100c5565b005b6000811161011a5760405162461bcd60e51b815260206004820152601960248201527f446f6e6174696f6e206d75737420657863656564207a65726f0000000000000060448201526064015b60405180910390fd5b6040516323b872dd60e01b8152336004820152306024820152604481018290526000907f00000000000000000000000000000000000000000000000000000000000000006001600160a01b0316906323b872dd906064016020604051808303816000875af1158015610190573d6000803e3d6000fd5b505050506040513d601f19601f820116820180604052508101906101b4919061039c565b90508061020e5760405162461bcd60e51b815260206004820152602260248201527f4661696c656420746f207472616e7366657220555344432066726f6d20646f6e60448201526137b960f11b6064820152608401610111565b60405163a9059cbb60e01b81526001600160a01b037f000000000000000000000000000000000000000000000000000000000000000081166004830152602482018490527f0000000000000000000000000000000000000000000000000000000000000000169063a9059cbb906044016020604051808303816000875af115801561029d573d6000803e3d6000fd5b505050506040513d601f19601f820116820180604052508101906102c1919061039c565b90508061031a5760405162461bcd60e51b815260206004820152602160248201527f5472616e7366657220746f20636861726974792077616c6c6574206661696c656044820152601960fa1b6064820152608401610111565b604080518381524260208201526001600160a01b037f0000000000000000000000000000000000000000000000000000000000000000169133917fbe0281dcb233d52d4d243d0d6ff4ed47e8641aecf85b98611ade1c9307186b7d910160405180910390a35050565b60006020828403121561039557600080fd5b5035919050565b6000602082840312156103ae57600080fd5b815180151581146103be57600080fd5b939250505056fea264697066735822122097447f5108ccbc20c7ce743dd0bbcc4a3cd8f1b728766c1ae6ecad22dc41480c64736f6c634300081c0033",
  "linkReferences": {},
  "deployedLinkReferences": {}
}