{
  "_format": "hh-sol-artifact-1",
  "contractName": "ImpactChainFactory",
  "sourceName": "contracts/ImpactChainFactory.sol",
  "abi": [
    {
      "anonymous": false,
      "inputs": [
        {
          "indexed": true,
          "internalType": "address",
          "name": "contractAddress",
          "type": "address"
        },
        {
          "indexed": true,
          "internalType": "address",
          "name": "creator",
          "type": "address"
        },
        {
          "indexed": false,
          "internalType": "string",
          "name": "creatorName",
          "type": "string"
        },
        {
          "indexed": true,
          "internalType": "address",
          "name": "charityWallet",
          "type": "address"
        },
        {
          "indexed": false,
          "internalType": "uint256",
          "name": "goalAmount",
          "type": "uint256"
        },
        {
          "indexed": false,
          "internalType": "string",
          "name": "title",
          "type": "string"
        },
        {
          "indexed": false,
          "internalType": "uint256",
          "name": "creationDate",
          "type": "uint256"
        }
      ],
      "name": "ImpactChainCreated",
      "type": "event"
    },
    {
      "inputs": [
        {
          "internalType": "string",
          "name": "_creatorName",
          "type": "string"
        },
        {
          "internalType": "address",
          "name": "_charityWallet",
          "type": "address"
        },
        {
          "internalType": "address",
          "name": "_tokenAddress",
          "type": "address"
        },
        {
          "internalType": "uint256",
          "name": "_goalAmount",
          "type": "uint256"
        },
        {
          "internalType": "string",
          "name": "_title",
          "type": "string"
        },
        {
          "internalType": "string",
          "name": "_description",
          "type": "string"
        },
        {
          "internalType": "string",
          "name": "_imageUrl",
          "type": "string"
        }
      ],
      "name": "createImpactChain",
      "outputs": [],
      "stateMutability": "nonpayable",
      "type": "function"
    },
    {
      "inputs": [
        {
          "internalType": "uint256",
          "name": "",
          "type": "uint256"
        }
      ],
      "name": "deployedImpactChains",
      "outputs": [
        {
          "internalType": "contract ImpactChain",
          "name": "",
          "type": "address"
        }
      ],
      "stateMutability": "view",
      "type": "function"
    },
    {
      "inputs": [],
      "name": "getAllImpactChains",
      "outputs": [
        {
          "internalType": "contract ImpactChain[]",
          "name": "",
          "type": "address[]"
        }
      ],
      "stateMutability": "view",
      "type": "function"
    }
  ],
  "bytecode": "0x6080604052348015600f57600080fd5b5061186c8061001f6000396000f3fe608060405234801561001057600080fd5b50600436106100415760003560e01c806348c9278614610046578063621f754614610076578063e10b28971461008b575b600080fd5b61005961005436600461021b565b6100a0565b6040516001600160a01b0390911681526020015b60405180910390f35b61007e6100ca565b60405161006d9190610234565b61009e610099366004610341565b61012c565b005b600081815481106100b057600080fd5b6000918252602090912001546001600160a01b0316905081565b6060600080548060200260200160405190810160405280929190818152602001828054801561012257602002820191906000526020600020905b81546001600160a01b03168152600190910190602001808311610104575b5050505050905090565b600033888888888888886040516101429061020e565b610153989796959493929190610472565b604051809103906000f08015801561016f573d6000803e3d6000fd5b50600080546001810182559080527f290decd9548b62a8d60345a988386fc84ba6bc95484008f6362f93160ef3e5630180546001600160a01b0319166001600160a01b03838116918217909255604051929350908916913391907fb9f1f99e9eb606d42e8d831c1503d7cb42c0fd4b47a151462d63945e8456106c906101fc908d908b908b9042906104fe565b60405180910390a45050505050505050565b6112fb8061053c83390190565b60006020828403121561022d57600080fd5b5035919050565b602080825282518282018190526000918401906040840190835b818110156102755783516001600160a01b031683526020938401939092019160010161024e565b509095945050505050565b634e487b7160e01b600052604160045260246000fd5b600082601f8301126102a757600080fd5b813567ffffffffffffffff8111156102c1576102c1610280565b604051601f8201601f19908116603f0116810167ffffffffffffffff811182821017156102f0576102f0610280565b60405281815283820160200185101561030857600080fd5b816020850160208301376000918101602001919091529392505050565b80356001600160a01b038116811461033c57600080fd5b919050565b600080600080600080600060e0888a03121561035c57600080fd5b873567ffffffffffffffff81111561037357600080fd5b61037f8a828b01610296565b97505061038e60208901610325565b955061039c60408901610325565b945060608801359350608088013567ffffffffffffffff8111156103bf57600080fd5b6103cb8a828b01610296565b93505060a088013567ffffffffffffffff8111156103e857600080fd5b6103f48a828b01610296565b92505060c088013567ffffffffffffffff81111561041157600080fd5b61041d8a828b01610296565b91505092959891949750929550565b6000815180845260005b8181101561045257602081850181015186830182015201610436565b506000602082860101526020601f19601f83011685010191505092915050565b6001600160a01b0389168152610100602082018190526000906104979083018a61042c565b6001600160a01b038981166040850152881660608401526080830187905282810360a08401526104c7818761042c565b905082810360c08401526104db818661042c565b905082810360e08401526104ef818561042c565b9b9a5050505050505050505050565b608081526000610511608083018761042c565b8560208401528281036040840152610529818661042c565b9150508260608301529594505050505056fe61012060405234801561001157600080fd5b506040516112fb3803806112fb83398101604081905261003091610170565b6001600160a01b038816608052600361004988826102f7565b504260e0526001600160a01b0380871660a052851660c052610100849052600061007384826102f7565b50600161008083826102f7565b50600261008d82826102f7565b5050505050505050506103b5565b80516001600160a01b03811681146100b257600080fd5b919050565b634e487b7160e01b600052604160045260246000fd5b600082601f8301126100de57600080fd5b81516001600160401b038111156100f7576100f76100b7565b604051601f8201601f19908116603f011681016001600160401b0381118282101715610125576101256100b7565b60405281815283820160200185101561013d57600080fd5b60005b8281101561015c57602081860181015183830182015201610140565b506000918101602001919091529392505050565b600080600080600080600080610100898b03121561018d57600080fd5b6101968961009b565b60208a01519098506001600160401b038111156101b257600080fd5b6101be8b828c016100cd565b9750506101cd60408a0161009b565b95506101db60608a0161009b565b60808a015160a08b015191965094506001600160401b038111156101fe57600080fd5b61020a8b828c016100cd565b60c08b015190945090506001600160401b0381111561022857600080fd5b6102348b828c016100cd565b60e08b015190935090506001600160401b0381111561025257600080fd5b61025e8b828c016100cd565b9150509295985092959890939650565b600181811c9082168061028257607f821691505b6020821081036102a257634e487b7160e01b600052602260045260246000fd5b50919050565b601f8211156102f257806000526020600020601f840160051c810160208510156102cf5750805b601f840160051c820191505b818110156102ef57600081556001016102db565b50505b505050565b81516001600160401b03811115610310576103106100b7565b6103248161031e845461026e565b846102a8565b6020601f82116001811461035857600083156103405750848201515b600019600385901b1c1916600184901b1784556102ef565b600084815260208120601f198516915b828110156103885787850151825560209485019460019092019101610368565b50848210156103a65786840151600019600387901b60f8161c191681555b50505050600190811b01905550565b60805160a05160c05160e05161010051610ec4610437600039600081816101b3015261029201526000818161014301526102d901526000818161025b015281816106650152818161076a01526109e70152600081816101fd015281816102b6015281816105db015261073801526000818160ff01526108700152610ec46000f3fe608060405234801561001057600080fd5b50600436106100f55760003560e01c80634a79d50c11610097578063aba8315011610066578063aba8315014610232578063c59ee1dc1461023a578063f14faf6f14610243578063fc0c546a1461025657600080fd5b80634a79d50c146101e85780637284e416146101f05780637b208769146101f85780639922a4a81461021f57600080fd5b80631f6f90bd116100d35780631f6f90bd1461018f57806324600fc3146101a45780632636b945146101ae5780632ed2bc42146101d557600080fd5b806302d05d3f146100fa57806305b344101461013e5780630c611f2414610173575b600080fd5b6101217f000000000000000000000000000000000000000000000000000000000000000081565b6040516001600160a01b0390911681526020015b60405180910390f35b6101657f000000000000000000000000000000000000000000000000000000000000000081565b604051908152602001610135565b61017b61027d565b604051610135989796959493929190610b3e565b610197610542565b6040516101359190610bc0565b6101ac6105d0565b005b6101657f000000000000000000000000000000000000000000000000000000000000000081565b6101976101e3366004610bda565b610820565b61019761084b565b610197610858565b6101217f000000000000000000000000000000000000000000000000000000000000000081565b6101ac61022d366004610c09565b610865565b610197610956565b61016560045481565b6101ac610251366004610bda565b610963565b6101217f000000000000000000000000000000000000000000000000000000000000000081565b606080606060008060006060600080600160027f00000000000000000000000000000000000000000000000000000000000000006004547f000000000000000000000000000000000000000000000000000000000000000060037f000000000000000000000000000000000000000000000000000000000000000087805461030490610cc2565b80601f016020809104026020016040519081016040528092919081815260200182805461033090610cc2565b801561037d5780601f106103525761010080835404028352916020019161037d565b820191906000526020600020905b81548152906001019060200180831161036057829003601f168201915b5050505050975086805461039090610cc2565b80601f01602080910402602001604051908101604052809291908181526020018280546103bc90610cc2565b80156104095780601f106103de57610100808354040283529160200191610409565b820191906000526020600020905b8154815290600101906020018083116103ec57829003601f168201915b5050505050965085805461041c90610cc2565b80601f016020809104026020016040519081016040528092919081815260200182805461044890610cc2565b80156104955780601f1061046a57610100808354040283529160200191610495565b820191906000526020600020905b81548152906001019060200180831161047857829003601f168201915b505050505095508180546104a890610cc2565b80601f01602080910402602001604051908101604052809291908181526020018280546104d490610cc2565b80156105215780601f106104f657610100808354040283529160200191610521565b820191906000526020600020905b81548152906001019060200180831161050457829003601f168201915b50505050509150975097509750975097509750975097509091929394959697565b6003805461054f90610cc2565b80601f016020809104026020016040519081016040528092919081815260200182805461057b90610cc2565b80156105c85780601f1061059d576101008083540402835291602001916105c8565b820191906000526020600020905b8154815290600101906020018083116105ab57829003601f168201915b505050505081565b336001600160a01b037f0000000000000000000000000000000000000000000000000000000000000000161461064d5760405162461bcd60e51b815260206004820152601d60248201527f4f6e6c792074686520636861726974792063616e20776974686472617700000060448201526064015b60405180910390fd5b6040516370a0823160e01b81523060048201526000907f00000000000000000000000000000000000000000000000000000000000000006001600160a01b0316906370a0823190602401602060405180830381865afa1580156106b4573d6000803e3d6000fd5b505050506040513d601f19601f820116820180604052508101906106d89190610cfc565b9050600081116107215760405162461bcd60e51b81526020600482015260146024820152734e6f2066756e647320746f20776974686472617760601b6044820152606401610644565b60405163a9059cbb60e01b81526001600160a01b037f000000000000000000000000000000000000000000000000000000000000000081166004830152602482018390526000917f00000000000000000000000000000000000000000000000000000000000000009091169063a9059cbb906044016020604051808303816000875af11580156107b5573d6000803e3d6000fd5b505050506040513d601f19601f820116820180604052508101906107d99190610d15565b90508061081c5760405162461bcd60e51b815260206004820152601160248201527015da5d1a191c985dd85b0819985a5b1959607a1b6044820152606401610644565b5050565b6005818154811061083057600080fd5b90600052602060002001600091509050805461054f90610cc2565b6000805461054f90610cc2565b6001805461054f90610cc2565b336001600160a01b037f000000000000000000000000000000000000000000000000000000000000000016146108dd5760405162461bcd60e51b815260206004820152601f60248201527f4f6e6c79207468652063726561746f722063616e206164642070726f6f6673006044820152606401610644565b600580546001810182556000919091527f036b6384b5eca791c62761152d0c79bb0604c104a5fb6f4eb0703f3154bb3db0016109198282610d86565b507f41d5743595f9f2233d815b9b76f60080d76e2b60445874a94a195dd42ad8f3c6814260405161094b929190610e45565b60405180910390a150565b6002805461054f90610cc2565b600081116109c25760405162461bcd60e51b815260206004820152602660248201527f446f6e6174696f6e20616d6f756e74206d75737420626520677265617465722060448201526507468616e20360d41b6064820152608401610644565b6040516323b872dd60e01b8152336004820152306024820152604481018290526000907f00000000000000000000000000000000000000000000000000000000000000006001600160a01b0316906323b872dd906064016020604051808303816000875af1158015610a38573d6000803e3d6000fd5b505050506040513d601f19601f82011682018060405250810190610a5c9190610d15565b905080610aa35760405162461bcd60e51b8152602060048201526015602482015274151bdad95b881d1c985b9cd9995c8819985a5b1959605a1b6044820152606401610644565b8160046000828254610ab59190610e67565b90915550506040805183815242602082015233917f4928895ba6723e8e27b15f32e4c3054a1b6c7f8c03f133558d6fa42b3928d14c910160405180910390a25050565b6000815180845260005b81811015610b1e57602081850181015186830182015201610b02565b506000602082860101526020601f19601f83011685010191505092915050565b61010081526000610b5361010083018b610af8565b8281036020840152610b65818b610af8565b90508281036040840152610b79818a610af8565b60608401899052608084018890526001600160a01b03871660a085015283810360c08501529050610baa8186610af8565b9150508260e08301529998505050505050505050565b602081526000610bd36020830184610af8565b9392505050565b600060208284031215610bec57600080fd5b5035919050565b634e487b7160e01b600052604160045260246000fd5b600060208284031215610c1b57600080fd5b813567ffffffffffffffff811115610c3257600080fd5b8201601f81018413610c4357600080fd5b803567ffffffffffffffff811115610c5d57610c5d610bf3565b604051601f8201601f19908116603f0116810167ffffffffffffffff81118282101715610c8c57610c8c610bf3565b604052818152828201602001861015610ca457600080fd5b81602084016020830137600091810160200191909152949350505050565b600181811c90821680610cd657607f821691505b602082108103610cf657634e487b7160e01b600052602260045260246000fd5b50919050565b600060208284031215610d0e57600080fd5b5051919050565b600060208284031215610d2757600080fd5b81518015158114610bd357600080fd5b601f821115610d8157806000526020600020601f840160051c81016020851015610d5e5750805b601f840160051c820191505b81811015610d7e5760008155600101610d6a565b50505b505050565b815167ffffffffffffffff811115610da057610da0610bf3565b610db481610dae8454610cc2565b84610d37565b6020601f821160018114610de85760008315610dd05750848201515b600019600385901b1c1916600184901b178455610d7e565b600084815260208120601f198516915b82811015610e185787850151825560209485019460019092019101610df8565b5084821015610e365786840151600019600387901b60f8161c191681555b50505050600190811b01905550565b604081526000610e586040830185610af8565b90508260208301529392505050565b80820180821115610e8857634e487b7160e01b600052601160045260246000fd5b9291505056fea26469706673582212206fc623bdba76b7caffc3a38d3cc0e636b89a7adc6b9a83b5a43d6853f35cf2fc64736f6c634300081c0033a2646970667358221220980fe79df06d9bbb3a4939d4591b7a466e7c460c30284237e7baa9b7cf95fdef64736f6c634300081c0033",
  "linkReferences": {},
  "deployedLinkReferences": {}
}