{
  "_format": "hh-sol-artifact-1",
  "contractName": "ImpactProof",
  "sourceName": "contracts/ImpactProof.sol",
  "abi": [
    {
      "inputs": [],
      "stateMutability": "nonpayable",
      "type": "constructor"
    },
    {
      "inputs": [
        {
          "internalType": "address",
          "name": "owner",
          "type": "address"
        }
      ],
      "name": "OwnableInvalidOwner",
      "type": "error"
    },
    {
      "inputs": [
        {
          "internalType": "address",
          "name": "account",
          "type": "address"
        }
      ],
      "name": "OwnableUnauthorizedAccount",
      "type": "error"
    },
    {
      "anonymous": false,
      "inputs": [
        {
          "indexed": true,
          "internalType": "uint256",
          "name": "campaignId",
          "type": "uint256"
        },
        {
          "indexed": false,
          "internalType": "string",
          "name": "impactHash",
          "type": "string"
        },
        {
          "indexed": false,
          "internalType": "uint256",
          "name": "reportedCost",
          "type": "uint256"
        },
        {
          "indexed": false,
          "internalType": "string",
          "name": "description",
          "type": "string"
        },
        {
          "indexed": false,
          "internalType": "uint256",
          "name": "timestamp",
          "type": "uint256"
        }
      ],
      "name": "ImpactProofRecorded",
      "type": "event"
    },
    {
      "anonymous": false,
      "inputs": [
        {
          "indexed": true,
          "internalType": "address",
          "name": "previousOwner",
          "type": "address"
        },
        {
          "indexed": true,
          "internalType": "address",
          "name": "newOwner",
          "type": "address"
        }
      ],
      "name": "OwnershipTransferred",
      "type": "event"
    },
    {
      "inputs": [
        {
          "internalType": "uint256",
          "name": "",
          "type": "uint256"
        },
        {
          "internalType": "uint256",
          "name": "",
          "type": "uint256"
        }
      ],
      "name": "campaignImpactUpdates",
      "outputs": [
        {
          "internalType": "uint256",
          "name": "campaignId",
          "type": "uint256"
        },
        {
          "internalType": "string",
          "name": "impactHash",
          "type": "string"
        },
        {
          "internalType": "uint256",
          "name": "reportedCost",
          "type": "uint256"
        },
        {
          "internalType": "string",
          "name": "description",
          "type": "string"
        },
        {
          "internalType": "uint256",
          "name": "timestamp",
          "type": "uint256"
        }
      ],
      "stateMutability": "view",
      "type": "function"
    },
    {
      "inputs": [
        {
          "internalType": "uint256",
          "name": "_campaignId",
          "type": "uint256"
        }
      ],
      "name": "getImpactUpdatesForCampaign",
      "outputs": [
        {
          "components": [
            {
              "internalType": "uint256",
              "name": "campaignId",
              "type": "uint256"
            },
            {
              "internalType": "string",
              "name": "impactHash",
              "type": "string"
            },
            {
              "internalType": "uint256",
              "name": "reportedCost",
              "type": "uint256"
            },
            {
              "internalType": "string",
              "name": "description",
              "type": "string"
            },
            {
              "internalType": "uint256",
              "name": "timestamp",
              "type": "uint256"
            }
          ],
          "internalType": "struct ImpactProof.ImpactUpdate[]",
          "name": "",
          "type": "tuple[]"
        }
      ],
      "stateMutability": "view",
      "type": "function"
    },
    {
      "inputs": [],
      "name": "owner",
      "outputs": [
        {
          "internalType": "address",
          "name": "",
          "type": "address"
        }
      ],
      "stateMutability": "view",
      "type": "function"
    },
    {
      "inputs": [
        {
          "internalType": "uint256",
          "name": "_campaignId",
          "type": "uint256"
        },
        {
          "internalType": "string",
          "name": "_impactHash",
          "type": "string"
        },
        {
          "internalType": "uint256",
          "name": "_reportedCost",
          "type": "uint256"
        },
        {
          "internalType": "string",
          "name": "_description",
          "type": "string"
        }
      ],
      "name": "recordImpactHash",
      "outputs": [],
      "stateMutability": "nonpayable",
      "type": "function"
    },
    {
      "inputs": [],
      "name": "renounceOwnership",
      "outputs": [],
      "stateMutability": "nonpayable",
      "type": "function"
    },
    {
      "inputs": [
        {
          "internalType": "address",
          "name": "newOwner",
          "type": "address"
        }
      ],
      "name": "transferOwnership",
      "outputs": [],
      "stateMutability": "nonpayable",
      "type": "function"
    }
  ],
  "bytecode": "0x6080604052348015600f57600080fd5b503380603557604051631e4fbdf760e01b81526000600482015260240160405180910390fd5b603c816041565b506091565b600080546001600160a01b038381166001600160a01b0319831681178455604051919092169283917f8be0079c531659141344cd1fd0a4f28419497f9722a3daafe3b4186f6b6457e09190a35050565b610adf806100a06000396000f3fe608060405234801561001057600080fd5b50600436106100625760003560e01c80630506202c1461006757806348658c021461009457806364cae00b146100a9578063715018a6146100c95780638da5cb5b146100d1578063f2fde38b146100ec575b600080fd5b61007a610075366004610663565b6100ff565b60405161008b9594939291906106cb565b60405180910390f35b6100a76100a23660046107b4565b610262565b005b6100bc6100b7366004610830565b6103e0565b60405161008b9190610849565b6100a7610594565b6000546040516001600160a01b03909116815260200161008b565b6100a76100fa3660046108f4565b6105a8565b6001602052816000526040600020818154811061011b57600080fd5b90600052602060002090600502016000915091505080600001549080600101805461014590610924565b80601f016020809104026020016040519081016040528092919081815260200182805461017190610924565b80156101be5780601f10610193576101008083540402835291602001916101be565b820191906000526020600020905b8154815290600101906020018083116101a157829003601f168201915b5050505050908060020154908060030180546101d990610924565b80601f016020809104026020016040519081016040528092919081815260200182805461020590610924565b80156102525780601f1061022757610100808354040283529160200191610252565b820191906000526020600020905b81548152906001019060200180831161023557829003601f168201915b5050505050908060040154905085565b61026a6105e6565b60008351116102c05760405162461bcd60e51b815260206004820152601b60248201527f496d7061637420686173682063616e6e6f7420626520656d707479000000000060448201526064015b60405180910390fd5b60008151116103115760405162461bcd60e51b815260206004820152601b60248201527f4465736372697074696f6e2063616e6e6f7420626520656d707479000000000060448201526064016102b7565b6000848152600160208181526040808420815160a08101835289815280840189815292810188905260608101879052426080820152815480860183559186529290942082516005909502019384555190929182019061037090826109ad565b50604082015160028201556060820151600382019061038f90826109ad565b50608082015181600401555050837f89136d8026df87019698a0455d4e9a68722170cd0d60b538a78cfaa6dc2c7f2b848484426040516103d29493929190610a6c565b60405180910390a250505050565b606060016000838152602001908152602001600020805480602002602001604051908101604052809291908181526020016000905b8282101561058957838290600052602060002090600502016040518060a00160405290816000820154815260200160018201805461045290610924565b80601f016020809104026020016040519081016040528092919081815260200182805461047e90610924565b80156104cb5780601f106104a0576101008083540402835291602001916104cb565b820191906000526020600020905b8154815290600101906020018083116104ae57829003601f168201915b50505050508152602001600282015481526020016003820180546104ee90610924565b80601f016020809104026020016040519081016040528092919081815260200182805461051a90610924565b80156105675780601f1061053c57610100808354040283529160200191610567565b820191906000526020600020905b81548152906001019060200180831161054a57829003601f168201915b5050505050815260200160048201548152505081526020019060010190610415565b505050509050919050565b61059c6105e6565b6105a66000610613565b565b6105b06105e6565b6001600160a01b0381166105da57604051631e4fbdf760e01b8152600060048201526024016102b7565b6105e381610613565b50565b6000546001600160a01b031633146105a65760405163118cdaa760e01b81523360048201526024016102b7565b600080546001600160a01b038381166001600160a01b0319831681178455604051919092169283917f8be0079c531659141344cd1fd0a4f28419497f9722a3daafe3b4186f6b6457e09190a35050565b6000806040838503121561067657600080fd5b50508035926020909101359150565b6000815180845260005b818110156106ab5760208185018101518683018201520161068f565b506000602082860101526020601f19601f83011685010191505092915050565b85815260a0602082015260006106e460a0830187610685565b85604084015282810360608401526106fc8186610685565b9150508260808301529695505050505050565b634e487b7160e01b600052604160045260246000fd5b600082601f83011261073657600080fd5b813567ffffffffffffffff8111156107505761075061070f565b604051601f8201601f19908116603f0116810167ffffffffffffffff8111828210171561077f5761077f61070f565b60405281815283820160200185101561079757600080fd5b816020850160208301376000918101602001919091529392505050565b600080600080608085870312156107ca57600080fd5b84359350602085013567ffffffffffffffff8111156107e857600080fd5b6107f487828801610725565b93505060408501359150606085013567ffffffffffffffff81111561081857600080fd5b61082487828801610725565b91505092959194509250565b60006020828403121561084257600080fd5b5035919050565b6000602082016020835280845180835260408501915060408160051b86010192506020860160005b828110156108e857603f19878603018452815180518652602081015160a060208801526108a160a0880182610685565b905060408201516040880152606082015187820360608901526108c48282610685565b60809384015198909301979097525094506020938401939190910190600101610871565b50929695505050505050565b60006020828403121561090657600080fd5b81356001600160a01b038116811461091d57600080fd5b9392505050565b600181811c9082168061093857607f821691505b60208210810361095857634e487b7160e01b600052602260045260246000fd5b50919050565b601f8211156109a857806000526020600020601f840160051c810160208510156109855750805b601f840160051c820191505b818110156109a55760008155600101610991565b50505b505050565b815167ffffffffffffffff8111156109c7576109c761070f565b6109db816109d58454610924565b8461095e565b6020601f821160018114610a0f57600083156109f75750848201515b600019600385901b1c1916600184901b1784556109a5565b600084815260208120601f198516915b82811015610a3f5787850151825560209485019460019092019101610a1f565b5084821015610a5d5786840151600019600387901b60f8161c191681555b50505050600190811b01905550565b608081526000610a7f6080830187610685565b8560208401528281036040840152610a978186610685565b9150508260608301529594505050505056fea2646970667358221220e5e11c17e44abe11f09b9c63e4b1db2d41cd38a99153cb2e61d3f3dcf6d0896264736f6c634300081c0033",
  "linkReferences": {},
  "deployedLinkReferences": {}
}